{
  "_format": "hh-sol-artifact-1",
  "contractName": "CWJ",
  "sourceName": "contracts/CWJ.sol",
  "abi": [
    {
      "inputs": [
        {
          "internalType": "string",
          "name": "_initBaseURI",
          "type": "string"
        }
      ],
      "stateMutability": "nonpayable",
      "type": "constructor"
    },
    {
      "inputs": [],
      "name": "ApprovalCallerNotOwnerNorApproved",
      "type": "error"
    },
    {
      "inputs": [],
      "name": "ApprovalQueryForNonexistentToken",
      "type": "error"
    },
    {
      "inputs": [],
      "name": "BalanceQueryForZeroAddress",
      "type": "error"
    },
    {
      "inputs": [],
      "name": "MintERC2309QuantityExceedsLimit",
      "type": "error"
    },
    {
      "inputs": [],
      "name": "MintToZeroAddress",
      "type": "error"
    },
    {
      "inputs": [],
      "name": "MintZeroQuantity",
      "type": "error"
    },
    {
      "inputs": [],
      "name": "OwnerQueryForNonexistentToken",
      "type": "error"
    },
    {
      "inputs": [],
      "name": "OwnershipNotInitializedForExtraData",
      "type": "error"
    },
    {
      "inputs": [],
      "name": "TransferCallerNotOwnerNorApproved",
      "type": "error"
    },
    {
      "inputs": [],
      "name": "TransferFromIncorrectOwner",
      "type": "error"
    },
    {
      "inputs": [],
      "name": "TransferToNonERC721ReceiverImplementer",
      "type": "error"
    },
    {
      "inputs": [],
      "name": "TransferToZeroAddress",
      "type": "error"
    },
    {
      "inputs": [],
      "name": "URIQueryForNonexistentToken",
      "type": "error"
    },
    {
      "anonymous": false,
      "inputs": [
        {
          "indexed": true,
          "internalType": "address",
          "name": "owner",
          "type": "address"
        },
        {
          "indexed": true,
          "internalType": "address",
          "name": "approved",
          "type": "address"
        },
        {
          "indexed": true,
          "internalType": "uint256",
          "name": "tokenId",
          "type": "uint256"
        }
      ],
      "name": "Approval",
      "type": "event"
    },
    {
      "anonymous": false,
      "inputs": [
        {
          "indexed": true,
          "internalType": "address",
          "name": "owner",
          "type": "address"
        },
        {
          "indexed": true,
          "internalType": "address",
          "name": "operator",
          "type": "address"
        },
        {
          "indexed": false,
          "internalType": "bool",
          "name": "approved",
          "type": "bool"
        }
      ],
      "name": "ApprovalForAll",
      "type": "event"
    },
    {
      "anonymous": false,
      "inputs": [
        {
          "indexed": true,
          "internalType": "uint256",
          "name": "fromTokenId",
          "type": "uint256"
        },
        {
          "indexed": false,
          "internalType": "uint256",
          "name": "toTokenId",
          "type": "uint256"
        },
        {
          "indexed": true,
          "internalType": "address",
          "name": "from",
          "type": "address"
        },
        {
          "indexed": true,
          "internalType": "address",
          "name": "to",
          "type": "address"
        }
      ],
      "name": "ConsecutiveTransfer",
      "type": "event"
    },
    {
      "anonymous": false,
      "inputs": [
        {
          "indexed": true,
          "internalType": "address",
          "name": "previousOwner",
          "type": "address"
        },
        {
          "indexed": true,
          "internalType": "address",
          "name": "newOwner",
          "type": "address"
        }
      ],
      "name": "OwnershipTransferred",
      "type": "event"
    },
    {
      "anonymous": false,
      "inputs": [
        {
          "indexed": true,
          "internalType": "address",
          "name": "from",
          "type": "address"
        },
        {
          "indexed": true,
          "internalType": "address",
          "name": "to",
          "type": "address"
        },
        {
          "indexed": true,
          "internalType": "uint256",
          "name": "tokenId",
          "type": "uint256"
        }
      ],
      "name": "Transfer",
      "type": "event"
    },
    {
      "inputs": [],
      "name": "MaxPerWallet_WlFreeMint",
      "outputs": [
        {
          "internalType": "uint256",
          "name": "",
          "type": "uint256"
        }
      ],
      "stateMutability": "view",
      "type": "function"
    },
    {
      "inputs": [],
      "name": "MaxperWallet_PreSale",
      "outputs": [
        {
          "internalType": "uint256",
          "name": "",
          "type": "uint256"
        }
      ],
      "stateMutability": "view",
      "type": "function"
    },
    {
      "inputs": [
        {
          "internalType": "uint256",
          "name": "tokens",
          "type": "uint256"
        },
        {
          "internalType": "bytes32[]",
          "name": "merkleProof",
          "type": "bytes32[]"
        }
      ],
      "name": "PreSaleMint",
      "outputs": [],
      "stateMutability": "payable",
      "type": "function"
    },
    {
      "inputs": [],
      "name": "PreSale_Live",
      "outputs": [
        {
          "internalType": "bool",
          "name": "",
          "type": "bool"
        }
      ],
      "stateMutability": "view",
      "type": "function"
    },
    {
      "inputs": [],
      "name": "WlFreemint_Live",
      "outputs": [
        {
          "internalType": "bool",
          "name": "",
          "type": "bool"
        }
      ],
      "stateMutability": "view",
      "type": "function"
    },
    {
      "inputs": [],
      "name": "WlFreemint_Supply",
      "outputs": [
        {
          "internalType": "uint256",
          "name": "",
          "type": "uint256"
        }
      ],
      "stateMutability": "view",
      "type": "function"
    },
    {
      "inputs": [
        {
          "internalType": "address",
          "name": "to",
          "type": "address"
        },
        {
          "internalType": "uint256",
          "name": "tokenId",
          "type": "uint256"
        }
      ],
      "name": "approve",
      "outputs": [],
      "stateMutability": "payable",
      "type": "function"
    },
    {
      "inputs": [
        {
          "internalType": "address",
          "name": "owner",
          "type": "address"
        }
      ],
      "name": "balanceOf",
      "outputs": [
        {
          "internalType": "uint256",
          "name": "",
          "type": "uint256"
        }
      ],
      "stateMutability": "view",
      "type": "function"
    },
    {
      "inputs": [],
      "name": "baseExtension",
      "outputs": [
        {
          "internalType": "string",
          "name": "",
          "type": "string"
        }
      ],
      "stateMutability": "view",
      "type": "function"
    },
    {
      "inputs": [],
      "name": "baseURI",
      "outputs": [
        {
          "internalType": "string",
          "name": "",
          "type": "string"
        }
      ],
      "stateMutability": "view",
      "type": "function"
    },
    {
      "inputs": [
        {
          "internalType": "uint256",
          "name": "tokenId",
          "type": "uint256"
        }
      ],
      "name": "getApproved",
      "outputs": [
        {
          "internalType": "address",
          "name": "",
          "type": "address"
        }
      ],
      "stateMutability": "view",
      "type": "function"
    },
    {
      "inputs": [
        {
          "internalType": "address",
          "name": "owner",
          "type": "address"
        },
        {
          "internalType": "address",
          "name": "operator",
          "type": "address"
        }
      ],
      "name": "isApprovedForAll",
      "outputs": [
        {
          "internalType": "bool",
          "name": "",
          "type": "bool"
        }
      ],
      "stateMutability": "view",
      "type": "function"
    },
    {
      "inputs": [],
      "name": "maxSupply",
      "outputs": [
        {
          "internalType": "uint256",
          "name": "",
          "type": "uint256"
        }
      ],
      "stateMutability": "view",
      "type": "function"
    },
    {
      "inputs": [],
      "name": "merkleRoot",
      "outputs": [
        {
          "internalType": "bytes32",
          "name": "",
          "type": "bytes32"
        }
      ],
      "stateMutability": "view",
      "type": "function"
    },
    {
      "inputs": [],
      "name": "name",
      "outputs": [
        {
          "internalType": "string",
          "name": "",
          "type": "string"
        }
      ],
      "stateMutability": "view",
      "type": "function"
    },
    {
      "inputs": [],
      "name": "notRevealedUri",
      "outputs": [
        {
          "internalType": "string",
          "name": "",
          "type": "string"
        }
      ],
      "stateMutability": "view",
      "type": "function"
    },
    {
      "inputs": [
        {
          "internalType": "address",
          "name": "owner",
          "type": "address"
        }
      ],
      "name": "numberMinted",
      "outputs": [
        {
          "internalType": "uint256",
          "name": "",
          "type": "uint256"
        }
      ],
      "stateMutability": "view",
      "type": "function"
    },
    {
      "inputs": [],
      "name": "owner",
      "outputs": [
        {
          "internalType": "address",
          "name": "",
          "type": "address"
        }
      ],
      "stateMutability": "view",
      "type": "function"
    },
    {
      "inputs": [
        {
          "internalType": "uint256",
          "name": "_mintAmount",
          "type": "uint256"
        },
        {
          "internalType": "address",
          "name": "destination",
          "type": "address"
        }
      ],
      "name": "ownerMint",
      "outputs": [],
      "stateMutability": "nonpayable",
      "type": "function"
    },
    {
      "inputs": [
        {
          "internalType": "uint256",
          "name": "tokenId",
          "type": "uint256"
        }
      ],
      "name": "ownerOf",
      "outputs": [
        {
          "internalType": "address",
          "name": "",
          "type": "address"
        }
      ],
      "stateMutability": "view",
      "type": "function"
    },
    {
      "inputs": [
        {
          "internalType": "bool",
          "name": "_state",
          "type": "bool"
        }
      ],
      "name": "pause",
      "outputs": [],
      "stateMutability": "nonpayable",
      "type": "function"
    },
    {
      "inputs": [],
      "name": "paused",
      "outputs": [
        {
          "internalType": "bool",
          "name": "",
          "type": "bool"
        }
      ],
      "stateMutability": "view",
      "type": "function"
    },
    {
      "inputs": [],
      "name": "preSale_Cost",
      "outputs": [
        {
          "internalType": "uint256",
          "name": "",
          "type": "uint256"
        }
      ],
      "stateMutability": "view",
      "type": "function"
    },
    {
      "inputs": [],
      "name": "preSale_Supply",
      "outputs": [
        {
          "internalType": "uint256",
          "name": "",
          "type": "uint256"
        }
      ],
      "stateMutability": "view",
      "type": "function"
    },
    {
      "inputs": [
        {
          "internalType": "uint256",
          "name": "tokens",
          "type": "uint256"
        }
      ],
      "name": "publicSaleMint",
      "outputs": [],
      "stateMutability": "payable",
      "type": "function"
    },
    {
      "inputs": [],
      "name": "publicSale_Cost",
      "outputs": [
        {
          "internalType": "uint256",
          "name": "",
          "type": "uint256"
        }
      ],
      "stateMutability": "view",
      "type": "function"
    },
    {
      "inputs": [],
      "name": "publicSale_Live",
      "outputs": [
        {
          "internalType": "bool",
          "name": "",
          "type": "bool"
        }
      ],
      "stateMutability": "view",
      "type": "function"
    },
    {
      "inputs": [],
      "name": "publicSale_Supply",
      "outputs": [
        {
          "internalType": "uint256",
          "name": "",
          "type": "uint256"
        }
      ],
      "stateMutability": "view",
      "type": "function"
    },
    {
      "inputs": [],
      "name": "renounceOwnership",
      "outputs": [],
      "stateMutability": "nonpayable",
      "type": "function"
    },
    {
      "inputs": [
        {
          "internalType": "bool",
          "name": "_state",
          "type": "bool"
        }
      ],
      "name": "reveal",
      "outputs": [],
      "stateMutability": "nonpayable",
      "type": "function"
    },
    {
      "inputs": [],
      "name": "revealed",
      "outputs": [
        {
          "internalType": "bool",
          "name": "",
          "type": "bool"
        }
      ],
      "stateMutability": "view",
      "type": "function"
    },
    {
      "inputs": [
        {
          "internalType": "address",
          "name": "from",
          "type": "address"
        },
        {
          "internalType": "address",
          "name": "to",
          "type": "address"
        },
        {
          "internalType": "uint256",
          "name": "tokenId",
          "type": "uint256"
        }
      ],
      "name": "safeTransferFrom",
      "outputs": [],
      "stateMutability": "payable",
      "type": "function"
    },
    {
      "inputs": [
        {
          "internalType": "address",
          "name": "from",
          "type": "address"
        },
        {
          "internalType": "address",
          "name": "to",
          "type": "address"
        },
        {
          "internalType": "uint256",
          "name": "tokenId",
          "type": "uint256"
        },
        {
          "internalType": "bytes",
          "name": "_data",
          "type": "bytes"
        }
      ],
      "name": "safeTransferFrom",
      "outputs": [],
      "stateMutability": "payable",
      "type": "function"
    },
    {
      "inputs": [
        {
          "internalType": "address",
          "name": "operator",
          "type": "address"
        },
        {
          "internalType": "bool",
          "name": "approved",
          "type": "bool"
        }
      ],
      "name": "setApprovalForAll",
      "outputs": [],
      "stateMutability": "nonpayable",
      "type": "function"
    },
    {
      "inputs": [
        {
          "internalType": "string",
          "name": "_newBaseExtension",
          "type": "string"
        }
      ],
      "name": "setBaseExtension",
      "outputs": [],
      "stateMutability": "nonpayable",
      "type": "function"
    },
    {
      "inputs": [
        {
          "internalType": "string",
          "name": "_newBaseURI",
          "type": "string"
        }
      ],
      "name": "setBaseURI",
      "outputs": [],
      "stateMutability": "nonpayable",
      "type": "function"
    },
    {
      "inputs": [
        {
          "internalType": "uint256",
          "name": "_newsupply",
          "type": "uint256"
        }
      ],
      "name": "setMaxsupply",
      "outputs": [],
      "stateMutability": "nonpayable",
      "type": "function"
    },
    {
      "inputs": [
        {
          "internalType": "bytes32",
          "name": "_merkleRoot",
          "type": "bytes32"
        }
      ],
      "name": "setMerkleRoot",
      "outputs": [],
      "stateMutability": "nonpayable",
      "type": "function"
    },
    {
      "inputs": [
        {
          "internalType": "string",
          "name": "_notRevealedURI",
          "type": "string"
        }
      ],
      "name": "setNotRevealedURI",
      "outputs": [],
      "stateMutability": "nonpayable",
      "type": "function"
    },
    {
      "inputs": [
        {
          "internalType": "uint256",
          "name": "_limit",
          "type": "uint256"
        }
      ],
      "name": "set_MaxPerWallet_WlFreeMint",
      "outputs": [],
      "stateMutability": "nonpayable",
      "type": "function"
    },
    {
      "inputs": [
        {
          "internalType": "uint256",
          "name": "_limit",
          "type": "uint256"
        }
      ],
      "name": "set_MaxperWallet_PreSale",
      "outputs": [],
      "stateMutability": "nonpayable",
      "type": "function"
    },
    {
      "inputs": [
        {
          "internalType": "uint256",
          "name": "_newCost",
          "type": "uint256"
        }
      ],
      "name": "set_PreSale_Cost",
      "outputs": [],
      "stateMutability": "nonpayable",
      "type": "function"
    },
    {
      "inputs": [
        {
          "internalType": "uint256",
          "name": "_newsupply",
          "type": "uint256"
        }
      ],
      "name": "set_PreSale_Supply",
      "outputs": [],
      "stateMutability": "nonpayable",
      "type": "function"
    },
    {
      "inputs": [
        {
          "internalType": "uint256",
          "name": "_newsupply",
          "type": "uint256"
        }
      ],
      "name": "set_PublicSale_Supply",
      "outputs": [],
      "stateMutability": "nonpayable",
      "type": "function"
    },
    {
      "inputs": [
        {
          "internalType": "uint256",
          "name": "_newsupply",
          "type": "uint256"
        }
      ],
      "name": "set_WlFreemint_Supply",
      "outputs": [],
      "stateMutability": "nonpayable",
      "type": "function"
    },
    {
      "inputs": [
        {
          "internalType": "uint256",
          "name": "_newCost",
          "type": "uint256"
        }
      ],
      "name": "set_publicSale_Cost",
      "outputs": [],
      "stateMutability": "nonpayable",
      "type": "function"
    },
    {
      "inputs": [
        {
          "internalType": "bytes4",
          "name": "interfaceId",
          "type": "bytes4"
        }
      ],
      "name": "supportsInterface",
      "outputs": [
        {
          "internalType": "bool",
          "name": "",
          "type": "bool"
        }
      ],
      "stateMutability": "view",
      "type": "function"
    },
    {
      "inputs": [],
      "name": "symbol",
      "outputs": [
        {
          "internalType": "string",
          "name": "",
          "type": "string"
        }
      ],
      "stateMutability": "view",
      "type": "function"
    },
    {
      "inputs": [
        {
          "internalType": "bool",
          "name": "_state",
          "type": "bool"
        }
      ],
      "name": "toggle_PreSale_Live",
      "outputs": [],
      "stateMutability": "nonpayable",
      "type": "function"
    },
    {
      "inputs": [
        {
          "internalType": "bool",
          "name": "_state",
          "type": "bool"
        }
      ],
      "name": "toggle_WlFreemint_Live",
      "outputs": [],
      "stateMutability": "nonpayable",
      "type": "function"
    },
    {
      "inputs": [
        {
          "internalType": "bool",
          "name": "_state",
          "type": "bool"
        }
      ],
      "name": "toggle_publicSale_Live",
      "outputs": [],
      "stateMutability": "nonpayable",
      "type": "function"
    },
    {
      "inputs": [
        {
          "internalType": "uint256",
          "name": "tokenId",
          "type": "uint256"
        }
      ],
      "name": "tokenURI",
      "outputs": [
        {
          "internalType": "string",
          "name": "",
          "type": "string"
        }
      ],
      "stateMutability": "view",
      "type": "function"
    },
    {
      "inputs": [],
      "name": "totalSupply",
      "outputs": [
        {
          "internalType": "uint256",
          "name": "",
          "type": "uint256"
        }
      ],
      "stateMutability": "view",
      "type": "function"
    },
    {
      "inputs": [
        {
          "internalType": "address",
          "name": "from",
          "type": "address"
        },
        {
          "internalType": "address",
          "name": "to",
          "type": "address"
        },
        {
          "internalType": "uint256",
          "name": "tokenId",
          "type": "uint256"
        }
      ],
      "name": "transferFrom",
      "outputs": [],
      "stateMutability": "payable",
      "type": "function"
    },
    {
      "inputs": [
        {
          "internalType": "address",
          "name": "newOwner",
          "type": "address"
        }
      ],
      "name": "transferOwnership",
      "outputs": [],
      "stateMutability": "nonpayable",
      "type": "function"
    },
    {
      "inputs": [
        {
          "internalType": "uint256",
          "name": "tokens",
          "type": "uint256"
        },
        {
          "internalType": "bytes32[]",
          "name": "merkleProof",
          "type": "bytes32[]"
        }
      ],
      "name": "whitelistedFreeMint",
      "outputs": [],
      "stateMutability": "nonpayable",
      "type": "function"
    },
    {
      "inputs": [],
      "name": "withdraw",
      "outputs": [],
      "stateMutability": "payable",
      "type": "function"
    }
  ],
  "bytecode": "0x60c06040526005608081905264173539b7b760d91b60a09081526200002891600b919062000215565b5067015181ff25a98000600d5567011c37937e080000600e5561013a600f5560146010819055602860115560c86012556003601355600190556015805464ffffffffff191664010101010017905560006016553480156200008857600080fd5b5060405162002cc238038062002cc2833981016040819052620000ab91620002d1565b6040805180820182526011815270436f666665652077697468204a6573757360781b60208083019182528351808501909452600384526221aba560e91b908401528151919291620000ff9160029162000215565b5080516200011590600390602084019062000215565b5050600a6000555062000128336200013f565b6001600955620001388162000191565b50620003ea565b600880546001600160a01b038381166001600160a01b0319831681179093556040519116919082907f8be0079c531659141344cd1fd0a4f28419497f9722a3daafe3b4186f6b6457e090600090a35050565b6200019b620001b4565b8051620001b090600a90602084019062000215565b5050565b6008546001600160a01b03163314620002135760405162461bcd60e51b815260206004820181905260248201527f4f776e61626c653a2063616c6c6572206973206e6f7420746865206f776e6572604482015260640160405180910390fd5b565b8280546200022390620003ad565b90600052602060002090601f01602090048101928262000247576000855562000292565b82601f106200026257805160ff191683800117855562000292565b8280016001018555821562000292579182015b828111156200029257825182559160200191906001019062000275565b50620002a0929150620002a4565b5090565b5b80821115620002a05760008155600101620002a5565b634e487b7160e01b600052604160045260246000fd5b60006020808385031215620002e557600080fd5b82516001600160401b0380821115620002fd57600080fd5b818501915085601f8301126200031257600080fd5b815181811115620003275762000327620002bb565b604051601f8201601f19908116603f01168101908382118183101715620003525762000352620002bb565b8160405282815288868487010111156200036b57600080fd5b600093505b828410156200038f578484018601518185018701529285019262000370565b82841115620003a15760008684830101525b98975050505050505050565b600181811c90821680620003c257607f821691505b60208210811415620003e457634e487b7160e01b600052602260045260246000fd5b50919050565b6128c880620003fa6000396000f3fe6080604052600436106103755760003560e01c80636a3039cd116101d1578063c0fb514e11610102578063da3ef23f116100a0578063ea0e229f1161006f578063ea0e229f1461097a578063eddd240a1461099a578063f2c4ce1e146109ba578063f2fde38b146109da57600080fd5b8063da3ef23f146108d1578063dc33e681146108f1578063e317ca7914610911578063e985e9c51461093157600080fd5b8063cf7a7510116100dc578063cf7a75101461085a578063d47ad6641461087a578063d52c57e01461089b578063d5abeb01146108bb57600080fd5b8063c0fb514e1461080f578063c668286214610825578063c87b56dd1461083a57600080fd5b806391607d901161016f5780639651b516116101495780639651b516146107a9578063a22cb465146107c9578063b3ab66b0146107e9578063b88d4fde146107fc57600080fd5b806391607d901461075e578063940cd05b1461077457806395d89b411461079457600080fd5b8063715018a6116101ab578063715018a6146106f55780637cb647591461070a5780638202eaf61461072a5780638da5cb5b1461074057600080fd5b80636a3039cd146106aa5780636c0360eb146106c057806370a08231146106d557600080fd5b806323b872dd116102ab5780634a9877be1161024957806355f804b31161022357806355f804b3146106305780635c975abb146106505780636352211e1461066a578063648eb1091461068a57600080fd5b80634a9877be146105d157806351830227146105f1578063544912b41461061057600080fd5b806331c16a241161028557806331c16a24146105765780633ccfd60b146105965780633ee03f881461059e57806342842e0e146105be57600080fd5b806323b872dd1461053a57806326982a911461054d5780632eb4a7ab1461056057600080fd5b8063081c8c44116103185780630b47916e116102f25780630b47916e146104c3578063149835a0146104e35780631641bb0e1461050357806318160ddd1461052557600080fd5b8063081c8c441461048557806308714f9b1461049a578063095ea7b3146104b057600080fd5b8063031ec47311610354578063031ec473146103f157806305bc50721461041557806306fdde031461042b578063081812fc1461044d57600080fd5b8062bc80611461037a57806301ffc9a71461039c57806302329a29146103d1575b600080fd5b34801561038657600080fd5b5061039a61039536600461225a565b6109fa565b005b3480156103a857600080fd5b506103bc6103b7366004612289565b610a07565b60405190151581526020015b60405180910390f35b3480156103dd57600080fd5b5061039a6103ec3660046122bb565b610a59565b3480156103fd57600080fd5b5061040760115481565b6040519081526020016103c8565b34801561042157600080fd5b50610407600e5481565b34801561043757600080fd5b50610440610a74565b6040516103c8919061232e565b34801561045957600080fd5b5061046d61046836600461225a565b610b06565b6040516001600160a01b0390911681526020016103c8565b34801561049157600080fd5b50610440610b4a565b3480156104a657600080fd5b5061040760145481565b61039a6104be366004612358565b610bd8565b3480156104cf57600080fd5b5061039a6104de36600461225a565b610c78565b3480156104ef57600080fd5b5061039a6104fe36600461225a565b610c85565b34801561050f57600080fd5b506015546103bc90640100000000900460ff1681565b34801561053157600080fd5b50610407610c92565b61039a610548366004612382565b610ca0565b61039a61055b3660046123be565b610e31565b34801561056c57600080fd5b5061040760165481565b34801561058257600080fd5b5061039a61059136600461225a565b611187565b61039a611194565b3480156105aa57600080fd5b5061039a6105b936600461225a565b611206565b61039a6105cc366004612382565b611213565b3480156105dd57600080fd5b5061039a6105ec36600461225a565b61122e565b3480156105fd57600080fd5b506015546103bc90610100900460ff1681565b34801561061c57600080fd5b5061039a61062b3660046122bb565b61123b565b34801561063c57600080fd5b5061039a61064b3660046124c9565b611263565b34801561065c57600080fd5b506015546103bc9060ff1681565b34801561067657600080fd5b5061046d61068536600461225a565b611282565b34801561069657600080fd5b5061039a6106a53660046122bb565b61128d565b3480156106b657600080fd5b5061040760125481565b3480156106cc57600080fd5b506104406112b1565b3480156106e157600080fd5b506104076106f0366004612512565b6112be565b34801561070157600080fd5b5061039a61130d565b34801561071657600080fd5b5061039a61072536600461225a565b61131f565b34801561073657600080fd5b5061040760105481565b34801561074c57600080fd5b506008546001600160a01b031661046d565b34801561076a57600080fd5b5061040760135481565b34801561078057600080fd5b5061039a61078f3660046122bb565b61132c565b3480156107a057600080fd5b5061044061134e565b3480156107b557600080fd5b506015546103bc9062010000900460ff1681565b3480156107d557600080fd5b5061039a6107e436600461252d565b61135d565b61039a6107f736600461225a565b6113c9565b61039a61080a366004612560565b611583565b34801561081b57600080fd5b50610407600d5481565b34801561083157600080fd5b506104406115cd565b34801561084657600080fd5b5061044061085536600461225a565b6115da565b34801561086657600080fd5b5061039a61087536600461225a565b61174a565b34801561088657600080fd5b506015546103bc906301000000900460ff1681565b3480156108a757600080fd5b5061039a6108b63660046125dc565b611757565b3480156108c757600080fd5b50610407600f5481565b3480156108dd57600080fd5b5061039a6108ec3660046124c9565b6117fd565b3480156108fd57600080fd5b5061040761090c366004612512565b611818565b34801561091d57600080fd5b5061039a61092c36600461225a565b611843565b34801561093d57600080fd5b506103bc61094c3660046125ff565b6001600160a01b03918216600090815260076020908152604080832093909416825291909152205460ff1690565b34801561098657600080fd5b5061039a6109953660046122bb565b611850565b3480156109a657600080fd5b5061039a6109b53660046123be565b611876565b3480156109c657600080fd5b5061039a6109d53660046124c9565b611b0b565b3480156109e657600080fd5b5061039a6109f5366004612512565b611b26565b610a02611b9c565b600d55565b60006301ffc9a760e01b6001600160e01b031983161480610a3857506380ac58cd60e01b6001600160e01b03198316145b80610a535750635b5e139f60e01b6001600160e01b03198316145b92915050565b610a61611b9c565b6015805460ff1916911515919091179055565b606060028054610a8390612629565b80601f0160208091040260200160405190810160405280929190818152602001828054610aaf90612629565b8015610afc5780601f10610ad157610100808354040283529160200191610afc565b820191906000526020600020905b815481529060010190602001808311610adf57829003601f168201915b5050505050905090565b6000610b1182611bf6565b610b2e576040516333d1c03960e21b815260040160405180910390fd5b506000908152600660205260409020546001600160a01b031690565b600c8054610b5790612629565b80601f0160208091040260200160405190810160405280929190818152602001828054610b8390612629565b8015610bd05780601f10610ba557610100808354040283529160200191610bd0565b820191906000526020600020905b815481529060010190602001808311610bb357829003601f168201915b505050505081565b6000610be382611282565b9050336001600160a01b03821614610c1c57610bff813361094c565b610c1c576040516367d9dca160e11b815260040160405180910390fd5b60008281526006602052604080822080546001600160a01b0319166001600160a01b0387811691821790925591518593918516917f8c5be1e5ebec7d5bd14f71427d1e84f3dd0314c0f7b2291e5b200ac8c7c3b92591a4505050565b610c80611b9c565b601455565b610c8d611b9c565b600f55565b600154600054036009190190565b6000610cab82611c2b565b9050836001600160a01b0316816001600160a01b031614610cde5760405162a1148160e81b815260040160405180910390fd5b60008281526006602052604090208054338082146001600160a01b03881690911417610d2b57610d0e863361094c565b610d2b57604051632ce44b5f60e11b815260040160405180910390fd5b6001600160a01b038516610d5257604051633a954ecd60e21b815260040160405180910390fd5b8015610d5d57600082555b6001600160a01b038681166000908152600560205260408082208054600019019055918716808252919020805460010190554260a01b17600160e11b17600085815260046020526040902055600160e11b8316610de85760018401600081815260046020526040902054610de6576000548114610de65760008181526004602052604090208490555b505b83856001600160a01b0316876001600160a01b03167fddf252ad1be2c89b69c2b068fc378daa952ba7f163c4a11628f55a4df523b3ef60405160405180910390a4505050505050565b610e39611c94565b60155460ff1615610e655760405162461bcd60e51b8152600401610e5c90612664565b60405180910390fd5b60155462010000900460ff16610ebd5760405162461bcd60e51b815260206004820152601760248201527f73616c65204861736e27742073746172746564207965740000000000000000006044820152606401610e5c565b610f33828280806020026020016040519081016040528093929190818152602001838360200280828437600092019190915250506016546040516bffffffffffffffffffffffff193360601b16602082015290925060340190505b60405160208183030381529060405280519060200120611cee565b610f7f5760405162461bcd60e51b815260206004820152601d60248201527f20596f7520617265206e6f7420696e207468652077686974656c6973740000006044820152606401610e5c565b6000610f89610c92565b905060135484610fc2610f993390565b6001600160a01b03166000908152600560205260409081902054901c67ffffffffffffffff1690565b610fcc91906126b1565b111561101a5760405162461bcd60e51b815260206004820152601b60248201527f4d6178204e4654205065722057616c6c657420657863656564656400000000006044820152606401610e5c565b6000841161103a5760405162461bcd60e51b8152600401610e5c906126c9565b600f5461104785836126b1565b11156110655760405162461bcd60e51b8152600401610e5c90612700565b60105460115461107591906126b1565b61107f85836126b1565b11156110cd5760405162461bcd60e51b815260206004820152601a60248201527f70726553616c6520737570706c792072656163686564206d61780000000000006044820152606401610e5c565b60135484111561111a5760405162461bcd60e51b81526020600482015260186024820152771b585e081b5a5b9d081c195c88151e08195e18d95959195960421b6044820152606401610e5c565b83600e546111289190612724565b34101561116d5760405162461bcd60e51b81526020600482015260136024820152721b9bdd08195b9bdd59da08195d1a081cd95b9d606a1b6044820152606401610e5c565b6111773385611d04565b506111826001600955565b505050565b61118f611b9c565b601155565b61119c611b9c565b6111a4611c94565b604051600090339047908381818185875af1925050503d80600081146111e6576040519150601f19603f3d011682016040523d82523d6000602084013e6111eb565b606091505b50509050806111f957600080fd5b506112046001600955565b565b61120e611b9c565b601055565b61118283838360405180602001604052806000815250611583565b611236611b9c565b600e55565b611243611b9c565b601580549115156401000000000264ff0000000019909216919091179055565b61126b611b9c565b805161127e90600a9060208401906121c1565b5050565b6000610a5382611c2b565b611295611b9c565b60158054911515620100000262ff000019909216919091179055565b600a8054610b5790612629565b60006001600160a01b0382166112e7576040516323d3ad8160e21b815260040160405180910390fd5b506001600160a01b031660009081526005602052604090205467ffffffffffffffff1690565b611315611b9c565b6112046000611d1e565b611327611b9c565b601655565b611334611b9c565b601580549115156101000261ff0019909216919091179055565b606060038054610a8390612629565b3360008181526007602090815260408083206001600160a01b03871680855290835292819020805460ff191686151590811790915590519081529192917f17307eab39ab6107e8899845ad3d59bd9653f200f220920489ca2b5937696c31910160405180910390a35050565b6113d1611c94565b60155460ff16156113f45760405162461bcd60e51b8152600401610e5c90612664565b6015546301000000900460ff1661144d5760405162461bcd60e51b815260206004820152601760248201527f53616c65204861736e27742073746172746564207965740000000000000000006044820152606401610e5c565b6000611457610c92565b9050600082116114795760405162461bcd60e51b8152600401610e5c906126c9565b600f5461148683836126b1565b11156114a45760405162461bcd60e51b8152600401610e5c90612700565b6010546011546012546114b791906126b1565b6114c191906126b1565b6114cb83836126b1565b11156115195760405162461bcd60e51b815260206004820152601d60248201527f7075626c696353616c6520737570706c792072656163686564206d61780000006044820152606401610e5c565b81600d546115279190612724565b34101561156b5760405162461bcd60e51b8152602060048201526012602482015271696e73756666696369656e742066756e647360701b6044820152606401610e5c565b6115753383611d04565b506115806001600955565b50565b61158e848484610ca0565b6001600160a01b0383163b156115c7576115aa84848484611d70565b6115c7576040516368d2bf6b60e11b815260040160405180910390fd5b50505050565b600b8054610b5790612629565b60606115e582611bf6565b61164a5760405162461bcd60e51b815260206004820152603060248201527f455243373231414d657461646174613a2055524920717565727920666f72206e60448201526f37b732bc34b9ba32b73a103a37b5b2b760811b6064820152608401610e5c565b601554610100900460ff166116eb57600c805461166690612629565b80601f016020809104026020016040519081016040528092919081815260200182805461169290612629565b80156116df5780601f106116b4576101008083540402835291602001916116df565b820191906000526020600020905b8154815290600101906020018083116116c257829003601f168201915b50505050509050919050565b60006116f5611e68565b905060008151116117155760405180602001604052806000815250611743565b8061171f84611e77565b600b60405160200161173393929190612743565b6040516020818303038152906040525b9392505050565b611752611b9c565b601255565b61175f611b9c565b611767611c94565b600082116117875760405162461bcd60e51b8152600401610e5c906126c9565b6000611791610c92565b600f549091506117a184836126b1565b11156117e85760405162461bcd60e51b81526020600482015260166024820152751b585e08139195081b1a5b5a5d08195e18d95959195960521b6044820152606401610e5c565b6117f28284611d04565b5061127e6001600955565b611805611b9c565b805161127e90600b9060208401906121c1565b6001600160a01b0381166000908152600560205260408082205467ffffffffffffffff911c16610a53565b61184b611b9c565b601355565b611858611b9c565b6015805491151563010000000263ff00000019909216919091179055565b61187e611c94565b60155460ff16156118a15760405162461bcd60e51b8152600401610e5c90612664565b601554640100000000900460ff166118fb5760405162461bcd60e51b815260206004820152601760248201527f6d696e74204861736e27742073746172746564207965740000000000000000006044820152606401610e5c565b61195a828280806020026020016040519081016040528093929190818152602001838360200280828437600092019190915250506016546040516bffffffffffffffffffffffff193360601b1660208201529092506034019050610f18565b6119a65760405162461bcd60e51b815260206004820152601d60248201527f20596f7520617265206e6f7420696e207468652077686974656c6973740000006044820152606401610e5c565b60006119b0610c92565b9050601454846119c0610f993390565b6119ca91906126b1565b1115611a185760405162461bcd60e51b815260206004820152601b60248201527f4d6178204e4654205065722057616c6c657420657863656564656400000000006044820152606401610e5c565b60008411611a385760405162461bcd60e51b8152600401610e5c906126c9565b600f54611a4585836126b1565b1115611a635760405162461bcd60e51b8152600401610e5c90612700565b601054611a7085836126b1565b1115611abe5760405162461bcd60e51b815260206004820152601b60248201527f467265654d696e7420737570706c792072656163686564206d617800000000006044820152606401610e5c565b60145484111561116d5760405162461bcd60e51b81526020600482015260186024820152771b585e081b5a5b9d081c195c88151e08195e18d95959195960421b6044820152606401610e5c565b611b13611b9c565b805161127e90600c9060208401906121c1565b611b2e611b9c565b6001600160a01b038116611b935760405162461bcd60e51b815260206004820152602660248201527f4f776e61626c653a206e6577206f776e657220697320746865207a65726f206160448201526564647265737360d01b6064820152608401610e5c565b61158081611d1e565b6008546001600160a01b031633146112045760405162461bcd60e51b815260206004820181905260248201527f4f776e61626c653a2063616c6c6572206973206e6f7420746865206f776e65726044820152606401610e5c565b600081600a11158015611c0a575060005482105b8015610a53575050600090815260046020526040902054600160e01b161590565b60008180600a11611c7b57600054811015611c7b57600081815260046020526040902054600160e01b8116611c79575b80611743575060001901600081815260046020526040902054611c5b565b505b604051636f96cda160e11b815260040160405180910390fd5b60026009541415611ce75760405162461bcd60e51b815260206004820152601f60248201527f5265656e7472616e637947756172643a207265656e7472616e742063616c6c006044820152606401610e5c565b6002600955565b600082611cfb8584611f14565b14949350505050565b61127e828260405180602001604052806000815250611f59565b600880546001600160a01b038381166001600160a01b0319831681179093556040519116919082907f8be0079c531659141344cd1fd0a4f28419497f9722a3daafe3b4186f6b6457e090600090a35050565b604051630a85bd0160e11b81526000906001600160a01b0385169063150b7a0290611da5903390899088908890600401612807565b602060405180830381600087803b158015611dbf57600080fd5b505af1925050508015611def575060408051601f3d908101601f19168201909252611dec91810190612844565b60015b611e4a573d808015611e1d576040519150601f19603f3d011682016040523d82523d6000602084013e611e22565b606091505b508051611e42576040516368d2bf6b60e11b815260040160405180910390fd5b805181602001fd5b6001600160e01b031916630a85bd0160e11b1490505b949350505050565b6060600a8054610a8390612629565b60606000611e8483611fc6565b600101905060008167ffffffffffffffff811115611ea457611ea461243d565b6040519080825280601f01601f191660200182016040528015611ece576020820181803683370190505b5090508181016020015b600019016f181899199a1a9b1b9c1cb0b131b232b360811b600a86061a8153600a8504945084611f0757611f0c565b611ed8565b509392505050565b600081815b8451811015611f0c57611f4582868381518110611f3857611f38612861565b602002602001015161209e565b915080611f5181612877565b915050611f19565b611f6383836120ca565b6001600160a01b0383163b15611182576000548281035b611f8d6000868380600101945086611d70565b611faa576040516368d2bf6b60e11b815260040160405180910390fd5b818110611f7a578160005414611fbf57600080fd5b5050505050565b60008072184f03e93ff9f4daa797ed6e38ed64bf6a1f0160401b83106120055772184f03e93ff9f4daa797ed6e38ed64bf6a1f0160401b830492506040015b6d04ee2d6d415b85acef81000000008310612031576d04ee2d6d415b85acef8100000000830492506020015b662386f26fc10000831061204f57662386f26fc10000830492506010015b6305f5e1008310612067576305f5e100830492506008015b612710831061207b57612710830492506004015b6064831061208d576064830492506002015b600a8310610a535760010192915050565b60008183106120ba576000828152602084905260409020611743565b5060009182526020526040902090565b600054816120eb5760405163b562e8dd60e01b815260040160405180910390fd5b6001600160a01b03831660008181526005602090815260408083208054680100000000000000018802019055848352600490915281206001851460e11b4260a01b178317905582840190839083907fddf252ad1be2c89b69c2b068fc378daa952ba7f163c4a11628f55a4df523b3ef8180a4600183015b81811461219a57808360007fddf252ad1be2c89b69c2b068fc378daa952ba7f163c4a11628f55a4df523b3ef600080a4600101612162565b50816121b857604051622e076360e81b815260040160405180910390fd5b60005550505050565b8280546121cd90612629565b90600052602060002090601f0160209004810192826121ef5760008555612235565b82601f1061220857805160ff1916838001178555612235565b82800160010185558215612235579182015b8281111561223557825182559160200191906001019061221a565b50612241929150612245565b5090565b5b808211156122415760008155600101612246565b60006020828403121561226c57600080fd5b5035919050565b6001600160e01b03198116811461158057600080fd5b60006020828403121561229b57600080fd5b813561174381612273565b803580151581146122b657600080fd5b919050565b6000602082840312156122cd57600080fd5b611743826122a6565b60005b838110156122f15781810151838201526020016122d9565b838111156115c75750506000910152565b6000815180845261231a8160208601602086016122d6565b601f01601f19169290920160200192915050565b6020815260006117436020830184612302565b80356001600160a01b03811681146122b657600080fd5b6000806040838503121561236b57600080fd5b61237483612341565b946020939093013593505050565b60008060006060848603121561239757600080fd5b6123a084612341565b92506123ae60208501612341565b9150604084013590509250925092565b6000806000604084860312156123d357600080fd5b83359250602084013567ffffffffffffffff808211156123f257600080fd5b818601915086601f83011261240657600080fd5b81358181111561241557600080fd5b8760208260051b850101111561242a57600080fd5b6020830194508093505050509250925092565b634e487b7160e01b600052604160045260246000fd5b600067ffffffffffffffff8084111561246e5761246e61243d565b604051601f8501601f19908116603f011681019082821181831017156124965761249661243d565b816040528093508581528686860111156124af57600080fd5b858560208301376000602087830101525050509392505050565b6000602082840312156124db57600080fd5b813567ffffffffffffffff8111156124f257600080fd5b8201601f8101841361250357600080fd5b611e6084823560208401612453565b60006020828403121561252457600080fd5b61174382612341565b6000806040838503121561254057600080fd5b61254983612341565b9150612557602084016122a6565b90509250929050565b6000806000806080858703121561257657600080fd5b61257f85612341565b935061258d60208601612341565b925060408501359150606085013567ffffffffffffffff8111156125b057600080fd5b8501601f810187136125c157600080fd5b6125d087823560208401612453565b91505092959194509250565b600080604083850312156125ef57600080fd5b8235915061255760208401612341565b6000806040838503121561261257600080fd5b61261b83612341565b915061255760208401612341565b600181811c9082168061263d57607f821691505b6020821081141561265e57634e487b7160e01b600052602260045260246000fd5b50919050565b60208082526017908201527f6f6f707320636f6e747261637420697320706175736564000000000000000000604082015260600190565b634e487b7160e01b600052601160045260246000fd5b600082198211156126c4576126c461269b565b500190565b6020808252601b908201527f6e65656420746f206d696e74206174206c656173742031204e46540000000000604082015260600190565b6020808252600a908201526915d94814dbdb191bdd5d60b21b604082015260600190565b600081600019048311821515161561273e5761273e61269b565b500290565b6000845160206127568285838a016122d6565b8551918401916127698184848a016122d6565b8554920191600090600181811c908083168061278657607f831692505b8583108114156127a457634e487b7160e01b85526022600452602485fd5b8080156127b857600181146127c9576127f6565b60ff198516885283880195506127f6565b60008b81526020902060005b858110156127ee5781548a8201529084019088016127d5565b505083880195505b50939b9a5050505050505050505050565b6001600160a01b038581168252841660208201526040810183905260806060820181905260009061283a90830184612302565b9695505050505050565b60006020828403121561285657600080fd5b815161174381612273565b634e487b7160e01b600052603260045260246000fd5b600060001982141561288b5761288b61269b565b506001019056fea2646970667358221220e65d2545f6fd86ed38dd9fc3caa8ea338b07f138608a80fb02b922f4ff30af3364736f6c63430008090033",
  "linkReferences": {},
  "deployedLinkReferences": {}
}